:020000040800F2
:10000000002800200D040008E1030008E3030008B5
:10001000E5030008E7030008E9030008000000000A
:10002000000000000000000000000000EB030008DA
:10003000ED03000800000000EF030008F1030008D2
:10004000550400085504000855040008550400082C
:10005000550400085504000855040008550400081C
:10006000550400085504000855040008550400080C
:1000700055040008550400085504000855040008FC
:1000800055040008550400085504000855040008EC
:10009000F903000855040008550400085504000839
:1000A00055040008550400085504000855040008CC
:1000B000550400085504000800000000550400081D
:1000C000550400080000000000000000550400086E
:1000D000000000005504000855040008000000005E
:1000E00055040008550400085504000800000000ED
:1000F0000000000000000000000000000000000000
:0C01000000000000000000005FF808F1A3
:10010C0010B5054C237833B9044B13B10448AFF345
:10011C0000800123237010BDAC05002000000000FE
:10012C00F449000808B5034B1BB103490348AFF36E
:10013C00008008BD00000000B0050020F449000854
:10014C00F0B589B000240494059406940794244BCC
:10015C009A6942F010029A619A6902F010020092B8
:10016C00009A9A6942F020029A619A6902F0200280
:10017C000192019A9A6942F004029A619A6902F01A
:10018C0004020292029A9A6942F008029A619B69EF
:10019C0003F008030393039B124F01224FF4005109
:1001AC00384600F093FC104E22460121304600F0F8
:1001BC008DFC4FF4005304931123059301250695F0
:1001CC000223079304A9384600F070FB04950595AB
:1001DC000694079504A9304600F068FB09B0F0BD01
:1001EC0000100240001001400008014008B50B4807
:1001FC000B4B03600B4B436000238360C3604FF4D5
:10020C008042026143618361C361036200F0DAFDE5
:10021C0000B908BD00F03CF8FBE700BFC8050020A2
:10022C0000540040A086010010B586B00023029354
:10023C000393049305930268124B9A4201D006B0C3
:10024C0010BD114CA36943F00803A361A36903F02B
:10025C0008030093009BC0230293122303930123F2
:10026C0004930323059302A9084800F01FFBE369DC
:10027C0043F40013E361E36903F400130193019B5E
:10028C00DDE700BF0054004000100240000C0140AC
:10029C0008B572B600224FF40051024800F016FC6B
:1002AC00F8E700BF0010014000B595B028220021EE
:1002BC000DEB020004F0D6FA002305930693079386
:1002CC0008930993019302930393049301220A92D6
:1002DC004FF480330B930E920222119212934FF42F
:1002EC00801313930AA801F0CBFED0B90F2305930A
:1002FC0002230693002307934FF48062089209931C
:10030C00012105A802F0FCF868B9102301934FF401
:10031C008003049301A802F0BFF930B915B05DF861
:10032C0004FBFFF7B5FFFFF7B3FFFFF7B1FF0000CA
:10033C0000B583B000F016FAFFF7B6FFFFF700FF29
:10034C0004F062F8FFF752FF01224FF400510E48FF
:10035C0000F0BCFB00F0D6F8012000F025F90123D9
:10036C0000931823094A0021084600F0AFF900F069
:10037C0097F84FF40051044800F0AEFB4FF47A703C
:10038C0000F014FAF5E700BF001001400C4A000819
:10039C0082B00E4B9A6942F001029A619A6902F09E
:1003AC0001020092009ADA6942F08052DA61DB694C
:1003BC0003F080530193019B054A536823F0E063DB
:1003CC0043F00073536002B0704700BF001002404E
:1003DC0000000140FEE7FEE7FEE7FEE7FEE77047A0
:1003EC007047704708B500F0CFF908BD08B5024852
:1003FC0001F0EBFB08BD00BFE816002070470000C1
:10040C000C480D490D4A002302E0D458C450043363
:10041C00C4188C42F9D30A4A0A4C002301E0136039
:10042C000432A242FBD3FFF7E9FF04F0F7F9FFF720
:10043C007FFF704700000020AC05002060620008C0
:10044C00AC050020F81B0020FEE7000000B587B0CB
:10045C008DF81700FF230293012301930DF117026E
:10046C00009200227821034800F08AFD07B05DF865
:10047C0004FB00BFC805002000B585B04FF6FF7324
:10048C00029389B201910090012340227821034804
:10049C0000F076FD05B05DF804FB00BFC805002038
:1004AC0010B5002412E0A4F15000C0B2FFF7CEFF4B
:1004BC000020FFF7CBFF1020FFF7C8FF8021054875
:1004CC0000EBC410FFF7D8FF0134E4B2072CEAD9D3
:1004DC0010BD00BF1C06002008B5002009E0084A2A
:1004EC0002EBC0120021D15401337F2BF7DD013018
:1004FC00C0B2072801D80023F7E7FFF7D1FF08BDEA
:10050C001C06002008B5AE20FFF7A0FF0020FFF767
:10051C009DFF1020FFF79AFF4020FFF797FF8120E7
:10052C00FFF794FFCF20FFF791FFA120FFF78EFF7D
:10053C00C820FFF78BFFA620FFF788FFA820FFF746
:10054C0085FF3F20FFF782FFD320FFF77FFF0020BE
:10055C00FFF77CFFD520FFF779FF8020FFF776FFB0
:10056C00D920FFF773FFF120FFF770FFDA20FFF7B8
:10057C006DFF1220FFF76AFFDB20FFF767FF3020CB
:10058C00FFF764FF2020FFF761FF0220FFF75EFFFB
:10059C008D20FFF75BFF1420FFF758FFFFF79CFF40
:1005AC00AF20FFF753FF08BD08B530B9C820FFF7DF
:1005BC004DFFA120FFF74AFF08BDC020FFF746FF03
:1005CC00A020FFF743FFF7E74FEAD10C01F007013A
:1005DC0042B101228A40084B03EBCC13195C114346
:1005EC001954704701228A40034B03EBCC13195C5E
:1005FC0021EA0201195470471C0600202DE9F04F26
:10060C0085B0039001919A469DF83880A2F12003A1
:10061C00DBB2BAF1100F0BD0BAF1180F11D003EBFB
:10062C004303274A02EB830302934FF00C0B04E0C5
:10063C00244A02EB03130293D346039F4FF00009A5
:10064C0033E003EBC303204A02EB830302934FF026
:10065C00240BF2E7B8FA88F2520929463846FFF71C
:10066C00B3FF76080135EDB20134E4B2072C08D89B
:10067C0016F0010FEED0424629463846FFF7A4FF8C
:10068C00EFE70137FFB209F101034FEA5A0293FB7E
:10069C00F2F102FB113323B9019B0833DBB2019356
:1006AC00039F09F101095FFA89F9CB4505D9029B32
:1006BC0013F80960019D0024D8E705B0BDE8F08F60
:1006CC00344A0008A84E0008985400082DE9F0415F
:1006DC0082B004460F4616461D469DF8208000E069
:1006EC0001363278A2F12000C0B25E2811D8CDF8C4
:1006FC0000802B4639462046FFF780FF04EB55045B
:10070C00E4B204EB55037F2BEADD2F44FFB2002447
:10071C00E6E702B0BDE8F08110B504460E4B187840
:10072C004FF47A73B3FBF0F30C4A1068B0FBF3F0A0
:10073C0000F0A8F868B90F2C01D901200AE00022BA
:10074C0021464FF0FF3000F057F8054B1C6000209D
:10075C0000E0012010BD00BF0400002000000020BC
:10076C000800002008B5074A136843F01003136013
:10077C00032000F02FF80F20FFF7CEFFFFF708FE45
:10078C00002008BD00200240034A1168034B1B786F
:10079C000B441360704700BF1C0A002004000020AB
:1007AC00014B1868704700BF1C0A002038B504467E
:1007BC00FFF7F6FF0546B4F1FF3F02D0044B1B7860
:1007CC001C44FFF7EDFF401BA042FAD338BD00BF1D
:1007DC0004000020074AD36823F4E0631B041B0CBD
:1007EC00000200F4E060034343F0BF6343F40033C2
:1007FC00D360704700ED00E000B5194BDB68C3F324
:10080C000223C3F1070CBCF1040F28BF4FF0040CFA
:10081C0003F1040EBEF1060F18D9033B4FF0FF3E57
:10082C000EFA0CFC21EA0C0199400EFA03F322EAB1
:10083C000303194300280BDB0901C9B200F1604026
:10084C0000F5614080F800135DF804FB0023E5E738
:10085C0000F00F000901C9B2024B1954F4E700BFB4
:10086C0000ED00E014ED00E0002807DB00F01F02B3
:10087C00400901239340024A42F82030704700BFE0
:10088C0000E100E00138B0F1807F0BD24FF0E023A3
:10089C005861054AF02182F8231000209861072244
:1008AC001A6170470120704700ED00E070B582B00E
:1008BC000024A4468BE07F4DAA4210D007D97E4D70
:1008CC00AA420CD005F58035AA4208D015E0A5F552
:1008DC008015AA4203D005F57025AA4209D18A6871
:1008EC00002A00F0BF80012A00F0B7804361082481
:1008FC0003E0A5F58015AA42F1D0BEF1FF0F00F27E
:10090C00B3800646BEF1FF0F00F2B0804FEA8C02B6
:10091C0033680F25954023EA050304FA02F21343CA
:10092C0033604B6813F0805F4FD0644B9A6942F090
:10093C0001029A619B6903F001030193019B4FEA49
:10094C009C02951C5E4B53F825600CF003039D0034
:10095C000F23AB4026EA03065A4B984200F08C80DA
:10096C0003F58063984200F0898003F58063984218
:10097C0000F080800323AB4033430232504D45F8E6
:10098C0022304B6813F4803F7AD04F4A136843EA05
:10099C000E0313604B6813F4003F77D04A4A536838
:1009AC0043EA0E0353604B6813F4801F74D0464A1D
:1009BC00936843EA0E0393604B6813F4001F71D0E5
:1009CC00414AD36843EA0E03D3600CF1010C0A6868
:1009DC0032FA0CF36CD0012303FA0CF302EA030E87
:1009EC0033EA0202F1D14A68122A3FF664AF122AA6
:1009FC0083D801A555F822F0EB080008510A00082D
:100A0C005B0A00086D0A00080709000807090008BE
:100A1C00070900080709000807090008070900086A
:100A2C00070900080709000807090008070900085A
:100A3C00070900080709000807090008550A0008FB
:100A4C00610A0008CC6858E7CC68043455E7CC68D8
:100A5C00083452E7CC680C344FE7036108244CE7A8
:100A6C0000244AE7042448E7061D4BE7ACF10802D2
:100A7C0092004DE702237EE700237CE701237AE70F
:100A8C00114A136823EA0E03136083E70E4A536876
:100A9C0023EA0E03536086E70B4A936823EA0E039E
:100AAC00936089E7084AD36823EA0E03D3608CE786
:100ABC0002B070BD00002210000031100010024086
:100ACC000000014000080140000401400AB101612E
:100ADC007047090401617047C36801EA030221EA07
:100AEC00030141EA02410161704703685A6912F43B
:100AFC00806F01D1002070476FF480625A6100232F
:100B0C000363202280F83D2080F83E30026C42F0D6
:100B1C000402026480F83C30012070472DE9F0415A
:100B2C0007460D4690461E4624E0FFF739FE069B0D
:100B3C00C01AB04200D8EEB900233B63202287F8DC
:100B4C003D2087F83E303A6C42F020023A6487F838
:100B5C003C3001201EE03B689C6925EA040C1FFA1E
:100B6C008CFCBCFA8CFC4FEA5C1CE04511D1B6F154
:100B7C00FF3FDAD1C5F30743012BECD13B685B692E
:100B8C0025EA030C1FFA8CFCBCFA8CFC4FEA5C1CAB
:100B9C00EBE70020BDE8F0812DE9F04105460E465B
:100BAC00174698463DE01A6842F400721A602B68AA
:100BBC006FF480625A6100232B63202285F83D205C
:100BCC0085F83E302A6C42F004022A6485F83C30E9
:100BDC00012034E0FFF7E4FDA0EB0800B84200D898
:100BEC00FFB900232B63202285F83D2085F83E3089
:100BFC002A6C42F020022A6485F83C3001201EE069
:100C0C002B689C6926EA0404A4B2003C18BF01249A
:100C1C00A4B12B685A6912F4806FC4D1B7F1FF3FAD
:100C2C00D8D1C6F30743012BEAD12B685C6926EABD
:100C3C000404A4B2003C18BF0124E9E70020BDE87D
:100C4C00F08170B504460D46164623685B6913F0B7
:100C5C00800F1CD12046FFF748FFD0B9B5F1FF3FFC
:100C6C00F3D0FFF79DFD801BA84201D8002DECD1DD
:100C7C0000232363202284F83D2084F83E30226C2C
:100C8C0042F02002226484F83C30012000E0002075
:100C9C0070BD0120FCE700002DE9F04385B004464F
:100CAC000D4691461F46DDF830800D9E036819688D
:100CBC0041F4807119600096434600224FF00111F7
:100CCC00FFF72CFF60B9236805F0FE051D61334664
:100CDC00424626492046FFF75FFF68B1012008E035
:100CEC0023681B6813F4807F02D04FF400732364D5
:100CFC00032005B0BDE8F0830023039323685A69F1
:100D0C0003929B690393039B324641462046FFF7AF
:100D1C0098FF30B9012F0FD123685FFA89F61E6155
:100D2C00E7E7236C042B01D00120E2E7226813686B
:100D3C0043F400731360F7E723684FEA19221A6132
:100D4C00324641462046FFF77CFF20B923685FFA04
:100D5C0089F61E61CDE7236C042B01D00120C8E776
:100D6C002268136843F400731360F7E70200010074
:100D7C0070B504460D46164623685B6913F0040FE4
:100D8C001CD12046FFF7B1FED0B9B5F1FF3FF3D02F
:100D9C00FFF706FD801BA84201D8002DECD10023E3
:100DAC002363202284F83D2084F83E30226C42F0EC
:100DBC002002226484F83C30012000E0002070BD49
:100DCC000120FCE7002800F0CC8070B5044690F8B8
:100DDC003D30002B77D0242384F83D3022681368F3
:100DEC0023F0010313602268136843F4004313607B
:100DFC002268136823F40043136001F03DFC626821
:100E0C005A4B9A4264D85A4B98428CBF0023012308
:100E1C00002B40F0A8805749A1FB00318B0C2568B2
:100E2C006A6822F03F0242EA91426A6021680A6ACB
:100E3C0022F03F0266684D4DAE424FD8013313434A
:100E4C000B622168CA6922F44F4222F0FF026668E5
:100E5C00464B9E424CD8431E7600B3FBF6F301334F
:100E6C0040F6FC70034278D0C3F30B031343CB6101
:100E7C0021680B6823F0C003E269206A0243134324
:100E8C000B6021688B6823F4034323F0FF03226972
:100E9C00E068024313438B602168CB6823F0FF03A7
:100EAC006269A06902431343CB602268136843F064
:100EBC000103136000202064202384F83D3020635C
:100ECC0084F83E0070BD80F83C30FFF7ADF982E746
:100EDC00294B98428CBF0023012399E74FF4967558
:100EEC0005FB03F3254DA5FB03539B090133A6E733
:100EFC00A368BBB9451E06EB460CB5FBFCF50135EA
:100F0C00C5F30B05B5FA85F56D0945BBC3B90138B9
:100F1C0006EB4603B0FBF3F30133C3F30B0343F4CB
:100F2C000043A3E7451E06EB860C0CEB8C0CB5FBC3
:100F3C00FCF50135C5F30B05B5FA85F56D09E4E74C
:100F4C00013806EB860303EB8303B0FBF3F30133A9
:100F5C00C3F30B0343F4404388E7042386E70123E0
:100F6C0084E7012070470120ACE700BFA086010098
:100F7C007F841E0083DE1B43FF083D00D34D6210AF
:100F8C002DE9F04383B004460F46904699460C9EDB
:100F9C00FFF706FC054694F83D00C0B2202803D0AC
:100FAC00022003B0BDE8F0830095192301224B49C0
:100FBC002046FFF7B3FD002840F0898094F83C30C0
:100FCC00012B00F08680012384F83C3023681A68DA
:100FDC0012F0010F03D11A6842F001021A60226864
:100FEC00136823F400631360212384F83D304023FD
:100FFC0084F83E30002323640A9B6362BDF82C30D6
:10100C006385638D2385364BE362019500964B46D1
:10101C00424639462046FFF73FFE00285BD1238D20
:10102C00002B35D02A4631462046FFF70AFE20BB5E
:10103C00626A236812781A61626A531C6362218D9A
:10104C00013989B22185638D9BB2013B9BB26385CB
:10105C002368586910F0040FE1D00029DFD05278D2
:10106C001A61636A01336362238D013B2385638DAF
:10107C009BB2013B9BB26385D1E7236C042B01D05F
:10108C0001208EE72268136843F400731360F7E7BE
:10109C002A4631462046FFF76BFE50B1236C042BD9
:1010AC0001D001207DE72268136843F400731360BC
:1010BC00F7E72268136843F400731360202384F865
:1010CC003D30002384F83E3084F83C3069E7022040
:1010DC0067E7022065E7012063E700BF020010000C
:1010EC000000FFFF38B512F4804F44D00468B4F808
:1010FC0050309BB291F800C003EBCC03023304EBED
:10110C004303B3F80044C4F309048B69A34228D306
:10111C001B1B8B618B697BB9056835F82C309BB236
:10112C0023F4804323F0700383F4005343F400430F
:10113C0043F0800325F82C3012F0400F0ED00268DB
:10114C000D7832F825309BB223F4E04323F0700382
:10115C0043F4004343F0C00322F8253024B9204661
:10116C0038BD00238B61D5E723460A89496900689D
:10117C0002F0E5FAF3E70468B4F850309BB291F84A
:10118C0000C003EBCC03063304EB4303B3F8004479
:10119C00C4F309048B69A3422FD31B1B8B618B698E
:1011AC007BB9056835F82C309BB223F4804323F0CF
:1011BC00700383F4005343F4004343F0800325F899
:1011CC002C3012F0400F0FD1026891F800C032F8A9
:1011DC002C309BB223F4E04323F0700343F4004320
:1011EC0043F0C00322F82C30002CB8D023464A8997
:1011FC004969006802F0A3FAB1E700238B61CEE7DE
:10120C0070B586B0002800F08580044690F8A932AD
:10121C00EBB1032384F8A932206801F0D9FA2546F2
:10122C0055F8106BEC460FCDACE80F002B68CCF8E2
:10123C000030231D0ECB304601F0BAFA054658B1EA
:10124C00022384F8A9320125284606B070BD80F827
:10125C00A83203F0CDF9DCE70021206801F0C2FAD6
:10126C002B461AE05A1C02EB820104EBC10101204F
:10127C00487002EB820104F8313003EB830104EB7C
:10128C00C101CB8602EB820C04EBCC0C00208CF859
:10129C0003008863C8630864D3B261688B42E1D3EE
:1012AC0016E005EB850304EBC303002283F86921E8
:1012BC0083F8685183F86B21C3F87821C3F87C213B
:1012CC0005EB850304EBC303C3F880210135EDB2B4
:1012DC00A942E6D8254655F8106BEC460FCDACE884
:1012EC000F002B68CCF80030231D0ECB304601F0DC
:1012FC007BFA054620B1022384F8A9320125A3E725
:10130C00002384F82430012384F8A932206801F0EA
:10131C00A1FD99E7012597E738B590F8A832012B84
:10132C0011D00446012580F8A852006801F047FA54
:10133C002946204603F071FA206801F089FD00204F
:10134C0084F8A80238BD0220FCE770B505460C46AF
:10135C00164612F0400F00F00D810268B2F85030C2
:10136C009BB2097803EBC103023302EB4303B3F8DE
:10137C000024C2F30902A369934252D99B1AA361B8
:10138C00A369002B6AD16378002B4DD12B68B3F87D
:10139C00502092B2134403EB0111B1F804349BB208
:1013AC0023F4F8439BB2A1F80434B1F804346FEA87
:1013BC0043436FEA53439BB2A1F804342B68627821
:1013CC00002A3ED1B3F8502092B21344227803EB9A
:1013DC000213B3F80C2492B222F4F84292B2A3F89E
:1013EC000C24B3F80C246FEA42426FEA524292B2D8
:1013FC00A3F80C242178284603F02EF916F4804F1C
:10140C0041D02A68217832F821309BB223F4E04392
:10141C0023F0700343F4404343F0800322F821305F
:10142C0031E00023A361ABE7012BC7D12B68B3F8E4
:10143C00502092B2134403EB01110023A1F80434A1
:10144C00BCE7012AD6D1B3F8502092B213442278CB
:10145C0003EB02130022A3F80C24CBE716F4804F05
:10146C000DD0286830F821309BB223F4E04323F0F0
:10147C00700343F4404343F0800320F8213094F888
:10148C002430012B12D02A68217832F821309BB2FB
:10149C0023F4E04323F0400383F0300343F4004390
:1014AC0043F0800322F82130002070BD636913449F
:1014BC006361E3691344E361216A236999421FD391
:1014CC00C91A21626278002A3FD12A68B2F85010FA
:1014DC0089B20A44217802EB0112EBB9B2F8041478
:1014EC0089B221F4F84189B2A2F80414B2F80414B8
:1014FC006FEA41416FEA514189B2A2F8041426E027
:10150C0021B9002384F824301346DBE7002384F848
:10151C00243023620B46D5E73E2B09D8590813F02B
:10152C00010F00D00131890289B2A2F804140EE037
:10153C00590913F01F0F00D101396FEAC1616FEA2D
:10154C00514189B2A2F8041401E0012A06D09BB2E1
:10155C0022896169286801F085FC94E72A68B2F851
:10156C00501089B20A44217802EB011299B2A2F808
:10157C000414ECE70268B2F850309BB2097803EB24
:10158C00C103063302EB4303B3F80024C2F3090290
:10159C00A369934253D39B1AA361A369002B6BD10C
:1015AC006378002B4ED12B68B3F8502092B21344C1
:1015BC0003EB0111B1F804349BB223F4F8439BB252
:1015CC00A1F80434B1F804346FEA43436FEA53438F
:1015DC009BB2A1F804342B686278002A3FD1B3F88F
:1015EC00502092B21344227803EB0213B3F80C246C
:1015FC0092B222F4F84292B2A3F80C24B3F80C2461
:10160C006FEA42426FEA524292B2A3F80C2421785C
:10161C00284603F021F816F4804F7FF434AF2A6883
:10162C00217832F821309BB223F4E04323F070038D
:10163C0043F4404343F0800322F8213023E7002396
:10164C00A361AAE7012BC6D12B68B3F8502092B244
:10165C00134403EB01110023A1F80434BBE7012A66
:10166C00D5D1B3F8502092B21344227803EB021375
:10167C000022A3F80C24CAE716F4804F0DD1286879
:10168C0030F821309BB223F4E04323F0700343F491
:10169C00404343F0800320F8213094F82430012B90
:1016AC007FF4F1AE636913446361E3691344E3614E
:1016BC00216A236999421FD3C91A21622A68617869
:1016CC0000293ED1B2F8501089B20A44217802EBBD
:1016DC000112EBB9B2F80C1489B221F4F84189B2B9
:1016EC00A2F80C14B2F80C146FEA41416FEA5141A4
:1016FC0089B2A2F80C1426E021B9002384F8243016
:10170C001346DBE70023236284F824300B46D5E72D
:10171C003E2B09D8590813F0010F00D00131890272
:10172C0089B2A2F80C140EE0590913F01F0F00D166
:10173C0001396FEAC1616FEA514189B2A2F80C1408
:10174C0001E0012906D09BB262896169286801F029
:10175C0089FB98E6B2F8501089B20A44217802EB62
:10176C00011299B2A2F80C14EDE72DE9F0410546EF
:10177C002868B0F8443013F4004F00F00F82B0F832
:10178C004440A3B214F00F0440F0D88013F0100FB3
:10179C0061D003889AB213F4006F40F0938012F476
:1017AC00004FE5D0038823F070031B051B0D43F09D
:1017BC00800303802868B0F850309BB295F86821FC
:1017CC0003EBC203063300EB4303B3F80034C3F35B
:1017DC000903C5F884318BB1D5F87C1171B1B5F81A
:1017EC006E2101F0ACFFD5F88421D5F87C3113447F
:1017FC00C5F87C310021284602F022FF2B681A889C
:10180C0012F4006FB4D1B3F8502092B21344D5F84F
:10181C007821002A79D1B3F80C2492B222F4F84240
:10182C0092B2A3F80C24B3F80C246FEA42426FEA8C
:10183C00524292B2A3F80C242A6813889BB223F468
:10184C00804323F0700383F4405343F4004343F08C
:10185C00800313808CE703889BB223F4E14323F0CD
:10186C0070036FEA43436FEA53439BB203802A68C9
:10187C00B2F850309BB295F8281003EBC103023339
:10188C0002EB4303B3F80034C3F309036B64EA6B54
:10189C001344EB630021284602F0DEFE95F8243059
:1018AC00002B3FF465AF2B6C002B7FF461AF95F8E8
:1018BC0024302A6843F08003A2F84C30002385F8CA
:1018CC00243055E7B0F850309BB295F8682103EB03
:1018DC00C203063300EB4303B3F80034C3F309032C
:1018EC00C5F88431B5F86E2105F52C7101F027FF90
:1018FC002A68138823F070031B051B0D43F080032B
:10190C001380284602F094FE32E73E2A09D851088B
:10191C0012F0010F00D001318A0292B2A3F80C240C
:10192C008AE7510912F01F0F00D101396FEAC16229
:10193C006FEA524292B2A3F80C247DE730F82430BF
:10194C009EB213F4004F4FD116F0800F3FF410AF3E
:10195C00621C02EB820105EBC101286830F82430CF
:10196C009BB223F4E14323F070036FEA43436FEA25
:10197C0053439BB220F82430CB78032B07D033B1E0
:10198C00022B40F0068116F4807F40F0028128681B
:10199C00B0F850309BB2621C02EB820215F8326038
:1019AC0003EBC603023300EB4303B3F80034C3F379
:1019BC00090304EB840205EBC202126C9A4240F25A
:1019CC00D48004EB840705EBC707D21A3A6404EB06
:1019DC00840205EBC202126C002A40F0CD80314625
:1019EC00284602F039FEC3E630F8243023F07003A9
:1019FC001B051B0D43F0800320F8243004EB8401FD
:101A0C00C90001F5B47105EB010804EB840305EB87
:101A1C00C30393F87431002B42D12868B0F85030CE
:101A2C009BB204EB840205EBC20292F8682103EB33
:101A3C00C203063300EB4303B3F80074C7F3090782
:101A4C0017BB04EB840305EBC303D3F884213A449E
:101A5C00C3F88421D3F87C213A44C3F87C21D3F811
:101A6C0080313BB104EB840305EBC303D3F878312D
:101A7C009F4275D204EB840305EBC30393F8681102
:101A8C00284602F0DDFD5FE704EB840105EBC101A4
:101A9C003B46B1F86E21D1F87C1101F050FED0E735
:101AAC0004EB840305EBC30393F86B31022B35D0A5
:101ABC00296804EB840205EBC20292F8680131F844
:101ACC0020309BB223F4E04323F0700343F4004333
:101ADC0043F0C00321F82030286892F8682130F8D0
:101AEC00223013F4804F20D0B0F850309BB203EB6F
:101AFC00C203023300EB4303B3F80074C7F30907C6
:101B0C00002F9ED004EB840105EBC1013B46B1F8DC
:101B1C007021D1F87C1101F012FE92E73246414659
:101B2C002846FFF7DFFA07468BE7B0F850309BB238
:101B3C0003EBC203063300EB4303B3F80074C7F3A3
:101B4C000907002F3FF47DAF04EB840105EBC101C5
:101B5C003B46B1F87221D1F87C1101F0F0FD70E731
:101B6C004146286801F092F9EEE604EB840205EB9D
:101B7C00C202002717642AE704EB840205EBC202B9
:101B8C00D66B1E44D663546C2344536401F07EF927
:101B9C00EEE532462846FFF7D8FBE9E50020BDE824
:101BAC00F08190F8A832012B0DD010B5044601231A
:101BBC0080F8A83280F82410006801F043F9002066
:101BCC0084F8A80210BD0220704710B584B00446FA
:101BDC00006801F041F910F4004F47D1206801F082
:101BEC003BF910F4806F45D1206801F035F910F401
:101BFC00804F08D02268B2F844309BB223F4804363
:101C0C009BB2A2F84430206801F026F910F4005F72
:101C1C0008D02268B2F844309BB223F400539BB234
:101C2C00A2F84430206801F017F910F4805F32D12B
:101C3C00206801F011F910F4006F78D1206801F0E0
:101C4C000BF910F4007F40F09D80206801F004F93E
:101C5C0010F4807F08D02268B2F844309BB223F491
:101C6C0080739BB2A2F8443004B010BD2046FFF73D
:101C7C007CFDB3E72268B2F844309BB223F4806356
:101C8C009BB2A2F84430204602F0F7FC002120461B
:101C9C00FFF787FFA8E72268B2F840309BB223F029
:101CAC0004039BB2A2F840302268B2F840309BB2D9
:101CBC0023F008039BB2A2F84030204602F000FD4E
:101CCC002268B2F844309BB223F480539BB2A2F842
:101CDC004430ADE7226832F8231004AA02EB430229
:101CEC0022F8101C0133DBB2072BF3D92268B2F8AF
:101CFC0040309BB243F00103A2F840302268B2F8A6
:101D0C0040309BB223F001039BB2A2F84030236811
:101D1C00B3F8442012F4806FF9D0B3F8442092B297
:101D2C0022F4806292B2A3F8442000230BE000233B
:101D3C00DAE7226804A901EB430131F8101C22F800
:101D4C0023100133DBB2072BF3D92268B2F84030F1
:101D5C009BB243F00803A2F840302268B2F844303A
:101D6C009BB223F400639BB2A2F844302268B2F811
:101D7C0040309BB243F00403A2F84030204602F0FE
:101D8C008FFC5BE72268B2F844309BB223F40073FB
:101D9C009BB2A2F84430204602F069FC55E710B51E
:101DAC0004468C4611F0800F2AD101F0070000EB9D
:101DBC008001C90001F5B47E04EB0E0100EB80003C
:101DCC0004EBC0004FF0000E80F869E10CF0070C3A
:101DDC0081F800C00A61CB704A780AB1A1F80EC034
:101DEC00022B19D094F8A832012B18D0012384F8B7
:101DFC00A832206800F009FD002084F8A80210BD6C
:101E0C0001F00700013000EB800104EBC1014FF041
:101E1C00010E81F801E0D9E700230B71E2E7022003
:101E2C00EDE710B504460B4611F0800F1FD101F001
:101E3C00070202EB8201C90001F5B471014402EB07
:101E4C00820200EBC202002082F8690103F0070352
:101E5C000B7094F8A832012B13D0012384F8A8320C
:101E6C00206800F08EFE002084F8A80210BD01F05E
:101E7C000702013202EB820100EBC1010120487024
:101E8C00E4E70220F2E710B501F0070404EB84014B
:101E9C00C90001F5B471014404EB840C00EBCC0CCB
:101EAC00CCF87C21CCF880310023CCF884318CF830
:101EBC0069318CF8684124B9006800F0E7FF002014
:101ECC0010BD006800F0E2FFF9E701F0070101EB3B
:101EDC00810100EBC101D1F88401704710B501F00C
:101EEC00070404F1010C0CEB8C0100EBC10104EBB9
:101EFC00840E00EBCE0ECEF83C20CEF84030012202
:101F0C008EF84C20CEF848300023CEF844304A707E
:101F1C000CEB8C0C00F83C4024B9006800F0B6FFC8
:101F2C00002010BD006800F0B1FFF9E738B501F0F2
:101F3C0007054268954231D804460B4611F0800FD4
:101F4C001ED101EB8101C90001F5B471014403EB11
:101F5C00830300EBC303002283F8692101238B70F8
:101F6C000D7094F8A832012B1AD0012384F8A832F2
:101F7C00206800F0F1FE5DB1002084F8A80238BDA5
:101F8C006B1C03EB830100EBC10101224A70E5E7F6
:101F9C0004F52C71206800F063FFEDE70120EEE7FB
:101FAC000220ECE70B4601F00F014268914230D859
:101FBC0010B5044613F0800F21D103F0070202EB99
:101FCC008201C90001F5B471014402EB820200EBFD
:101FDC00C202002082F8690100228A7003F0070314
:101FEC000B7094F8A832012B15D0012384F8A83279
:101FFC00206800F0D6FE002084F8A80210BD03F083
:10200C000702013202EB820100EBC1010120487092
:10201C00E2E7012070470220F0E711F0800F0BD0AF
:10202C0001F00701013101EB810100EBC10152B953
:10203C000A73CB800020704701EB8101C90001F5C8
:10204C00B4710144F3E701220A730B811B0C4B8121
:10205C00F0E7000082B0084B1B68084AA2FB032380
:10206C005B0A00FB03F3019300BF019B5A1E019214
:10207C00002BF9D102B0704700000020D34D621044
:10208C00002800F0F18170B582B00446036813F0AB
:10209C00010F2CD0994B5B6803F00C03042B1DD063
:1020AC00964B5B6803F00C03082B12D06368B3F5F6
:1020BC00803F41D0002B55D103F1804303F504330D
:1020CC001A6822F480321A601A6822F480221A608C
:1020DC0037E08A4B5B6813F4803FE7D0874B1B6873
:1020EC0013F4003F03D06368002B00F0BF8123681A
:1020FC0013F0020F75D0814B5B6813F00C0F5FD09F
:10210C007E4B5B6803F00C03082B54D02369002B27
:10211C0000F08A807A4B01221A60FEF741FB0546DB
:10212C00764B1B6813F0020F75D1FEF739FB401B81
:10213C000228F5D903209EE1704A136843F48033DA
:10214C001360636843B3FEF72BFB05466B4B1B68B0
:10215C0013F4003FCBD1FEF723FB401B6428F5D9C9
:10216C00032088E1B3F5A02F09D0644B1A6822F440
:10217C0080321A601A6822F480221A60E1E703F1B7
:10218C008043A3F53C331A6842F480221A601A6823
:10219C0042F480321A60D4E7FEF702FB0546574B37
:1021AC001B6813F4003FA2D0FEF7FAFA401B642818
:1021BC00F5D903205FE1514B5B6813F4803FA5D147
:1021CC004E4B1B6813F0020F03D02369012B40F018
:1021DC004F814A4A136823F0F803616943EAC1034B
:1021EC001360236813F0080F33D0A369002B5CD065
:1021FC00434B0122C3F88024FEF7D2FA05463F4B2D
:10220C005B6A13F0020F21D1FEF7CAFA401B0228B9
:10221C00F5D903202FE1394A136823F0F8036169DB
:10222C0043EAC1031360DCE7354B00221A60FEF76A
:10223C00B7FA0546314B1B6813F0020FD1D0FEF7ED
:10224C00AFFA401B0228F5D9032014E10120FFF757
:10225C0001FF236813F0040F00F09680274BDB6915
:10226C0013F0805F34D1254BDA6942F08052DA6189
:10227C00DB6903F080530193019B0125214B1B6803
:10228C0013F4807F26D0E368012B3DD0002B53D173
:10229C0003F1804303F504331A6A22F001021A6237
:1022AC001A6A22F004021A6233E0154B0022C3F8BA
:1022BC008024FEF775FA0546104B5B6A13F0020F8B
:1022CC00C7D0FEF76DFA401B0228F5D90320D2E0E7
:1022DC000025D3E70B4A136843F480731360FEF7B1
:1022EC005FFA0646074B1B6813F4807FCBD1FEF7D1
:1022FC0057FA801B6428F5D90320BCE0001002407B
:10230C0000004242007000405F4A136A43F0010330
:10231C001362E36833B3FEF743FA06465A4B1B6A63
:10232C0013F0020F2FD1FEF73BFA801B41F28833DA
:10233C009842F3D903209EE0052B09D0524B1A6A20
:10234C0022F001021A621A6A22F004021A62E0E711
:10235C004D4B1A6A42F004021A621A6A42F00102E8
:10236C001A62D6E7FEF71CFA0646474B1B6A13F0B7
:10237C00020F08D0FEF714FA801B41F28833984202
:10238C00F3D9032077E0E5B9E369002B72D03E4A1C
:10239C00526802F00C02082A56D0022B17D03B4B85
:1023AC0000221A66FEF7FCF90446374B1B6813F043
:1023BC00007F47D0FEF7F4F9001B0228F5D9032063
:1023CC0059E0314AD36923F08053D361DCE72F4BBA
:1023DC0000221A66FEF7E4F905462B4B1B6813F036
:1023EC00007F06D0FEF7DCF9401B0228F5D903204C
:1023FC0041E0236AB3F5803F1AD023494B6823F49C
:10240C007413226A606A024313434B601F4B012210
:10241C001A66FEF7C5F904461B4B1B6813F0007FC8
:10242C000ED1FEF7BDF9001B0228F5D9032022E0DE
:10243C00154A536823F40033A1680B435360DCE75F
:10244C00002018E0002016E0012B16D00E4B5B6824
:10245C0003F48031226A914211D103F47013626A41
:10246C0093420ED1002006E001207047012002E0CB
:10247C00012000E0002002B070BD0120FBE701202C
:10248C00F9E70120F7E700BF0010024000004242CC
:10249C0086B0174B0FCB0DF1180C0CE90F0040F266
:1024AC000123ADF80430134B5B6803F00C02082ACF
:1024BC0002D0114806B07047C3F3834218326A4405
:1024CC0012F8100C13F4803F0DD00A4B5B68C3F369
:1024DC00404318336B4413F8143C074A02FB00F0DA
:1024EC00B0FBF3F0E6E7054B03FB00F0E2E700BFBF
:1024FC00F46100080010024000127A0000093D004F
:10250C00002800F0A08070B50D460446524B1B68A5
:10251C0003F007038B420BD24F4A136823F00703D7
:10252C000B431360136803F007038B4240F08D805C
:10253C00236813F0020F17D013F0040F04D0474A8E
:10254C00536843F4E0635360236813F0080F04D01E
:10255C00424A536843F460535360404A536823F033
:10256C00F003A1680B435360236813F0010F31D0C3
:10257C006368012B20D0022B25D0384A126812F048
:10258C00020F64D035494A6822F0030213434B60B2
:10259C00FEF706F90646314B5B6803F00C036268E4
:1025AC00B3EB820F16D0FEF7FBF8801B41F2883399
:1025BC009842F0D9032045E0284A126812F4003FF3
:1025CC00E0D101203EE0254A126812F0007FD9D1FB
:1025DC00012037E0204B1B6803F00703AB420AD9FC
:1025EC001D4A136823F007032B431360136803F091
:1025FC000703AB422DD1236813F0040F06D0174A02
:10260C00536823F4E063E1680B435360236813F0D1
:10261C00080F07D0114A536823F46053216943EA29
:10262C00C1035360FFF734FF0C4B5B68C3F3031318
:10263C000B4AD35CD8400B4B18600B4B1868FEF759
:10264C006BF8002070BD012070470120FAE70120D3
:10265C00F8E70120F6E700BF00200240001002401E
:10266C001C4A00080000002008000020014B1868DC
:10267C00704700BF0000002008B5FFF7F7FF044BC0
:10268C005B68C3F30223034AD35CD84008BD00BF88
:10269C00001002402C4A000870B582B00446036852
:1026AC0013F0010F36D03F4BDB6913F0805F49D13B
:1026BC003C4BDA6942F08052DA61DB6903F08053FB
:1026CC000193019B0125384B1B6813F4807F3BD091
:1026DC00344B1B6A13F4407313D0626802F44072DB
:1026EC009A420ED02F4A136A23F440702F490126C8
:1026FC00C1F840640026C1F84064106213F0010F69
:10270C0036D1284A136A23F4407361680B43136271
:10271C00002D3ED1236813F0020F06D0214A5368D6
:10272C0023F44043A1680B435360236813F0100F4C
:10273C0034D01C4A536823F48003E1680B43536084
:10274C0000202CE00025BEE7174A136843F4807381
:10275C001360FEF725F80646134B1B6813F4807FB5
:10276C00B6D1FEF71DF8801B6428F5D9032016E0BE
:10277C00FEF716F806460B4B1B6A13F0020FC0D17E
:10278C00FEF70EF8801B41F288339842F3D90320F0
:10279C0005E0D36923F08053D361BBE7002002B07E
:1027AC0070BD00BF001002400070004000004242AB
:1027BC0084B001A880E80E00002004B070470346E6
:1027CC000020A3F844004FF43F42A3F84020704788
:1027DC00B0F8403023F47C535B045B0CA0F8403021
:1027EC00002070470020704784B0844601A880E820
:1027FC000E000123ACF840300020ACF84000ACF8DF
:10280C004400ACF8500004B0704710B5034691F882
:10281C0000C030F82C2092B222F4EC4222F070026C
:10282C0092B2C878032861D8DFE800F0555C0258F2
:10283C00002048F2800E42EA0E0223F82C2091F878
:10284C0000C033F82C2092B222F4E04222F0700245
:10285C004CEA020242EA0E0223F82C200A7B002AE0
:10286C0040F0C4804A78002A51D0B3F8502092B27C
:10287C001A440C7802EB0412B1F806C04FEA5C0C57
:10288C004FEA4C0CA2F800C40C7833F8242012F058
:10289C00400F0CD033F8242092B222F4E04222F004
:1028AC00700242F4004242F0C00223F82420CA789D
:1028BC00012A1DD0097833F8212092B222F4E0428B
:1028CC0022F0400282F0200242F4004242F08002E8
:1028DC0023F821206AE042F40072AAE742F4C062B5
:1028EC000020A6E742F480620020A2E70120A0E7C6
:1028FC00097833F8212092B222F4E04222F040020F
:10290C0042F4004242F0800223F821204EE0B3F85A
:10291C00502092B21A440C7802EB0412B1F806C0A3
:10292C004FEA5C0C4FEA4C0CA2F808C4B3F85020E8
:10293C0092B21A440C7802EB04120C69BCBBB2F8CC
:10294C000CC41FFA8CFC2CF4F84C1FFA8CFCA2F86B
:10295C000CC4B2F80CC46FEA4C4C6FEA5C4C1FFA16
:10296C008CFCA2F80CC40C7833F8242012F4804FA1
:10297C000CD033F8242092B222F4E04222F0700200
:10298C0042F4404242F0800223F82420097833F8C4
:10299C00212092B222F4804222F0700282F4405242
:1029AC0042F4004242F0800223F8212010BD3E2C5C
:1029BC000DD84FEA540C14F0010F01D00CF1010C9E
:1029CC004FEA8C2C1FFA8CFCA2F80CC4CBE74FEA14
:1029DC00541C14F01F0F01D10CF1FF3C6FEACC64B6
:1029EC006FEA5444A4B2A2F80C44BCE791F800C0BE
:1029FC0033F82C2092B222F4E04222F0700242F41E
:102A0C00014242F0800223F82C20B3F8502092B2FD
:102A1C001A4491F800C002EB0C12B1F808C04FEA4E
:102A2C005C0C4FEA4C0CA2F800C4B3F8502092B2E4
:102A3C001A4491F800C002EB0C12B1F80AC04FEA2C
:102A4C005C0C4FEA4C0CA2F808C44A78002A41D11D
:102A5C000C7833F8242012F4804F0CD033F8242057
:102A6C0092B222F4E04222F0700242F4404242F070
:102A7C00800223F824200C7833F8242012F0400F25
:102A8C000CD033F8242092B222F4E04222F07002EF
:102A9C0042F4004242F0C00223F8242091F800C016
:102AAC0033F82C2092B222F4804222F0700282F48D
:102ABC00405248F28004224323F82C20097833F842
:102ACC00212092B222F4E04222F04002224323F869
:102ADC0021206BE70C7833F8242012F4804F0CD0B3
:102AEC0033F8242092B222F4E04222F0700242F435
:102AFC00404242F0800223F824200C7833F8242042
:102B0C0012F0400F0CD033F8242092B222F4E042A1
:102B1C0022F0700242F4004242F0C00223F824205A
:102B2C00CA78012A1ED00C7833F8242092B222F4F1
:102B3C00E04222F0400282F0200242F4004242F0D5
:102B4C00800223F82420097833F8212092B222F451
:102B5C00804222F0700242F4004242F0800223F8DC
:102B6C00212023E70C7833F8242092B222F4E0429F
:102B7C0022F0400242F4004242F0800223F824206A
:102B8C00E1E70B7B002B46D14B7813B30A7830F876
:102B9C00223013F0400F0CD030F822309BB223F4CB
:102BAC00E04323F0700343F4004343F0C00320F8E8
:102BBC0022300A7830F822309BB223F4E04323F021
:102BCC00400343F4004343F0800320F822300020FC
:102BDC0070470A7830F8223013F4804F0CD030F85C
:102BEC0022309BB223F4E04323F0700343F44043C0
:102BFC0043F0800320F822300A7830F822309BB260
:102C0C0023F4804323F0700343F4004343F0800328
:102C1C0020F82230DBE74B78002B4ED10A7830F8C5
:102C2C00223013F4804F0CD030F822309BB223F4B6
:102C3C00E04323F0700343F4404343F0800320F857
:102C4C0022300A7830F8223013F0400F0CD030F8D4
:102C5C0022309BB223F4E04323F0700343F400438F
:102C6C0043F0C00320F822300A7830F822309BB2AF
:102C7C0023F4E04323F0700343F4004343F0C00318
:102C8C0020F822300B7830F8232092B222F48042C4
:102C9C0022F0700248F2800C42EA0C0220F8232049
:102CAC000A7830F822309BB223F4E04323F040033F
:102CBC0043EA0C0320F8223089E70A7830F82230F6
:102CCC0013F4804F0CD030F822309BB223F4E04345
:102CDC0023F0700343F4404343F0800320F8223088
:102CEC000A7830F8223013F0400F0CD030F8223034
:102CFC009BB223F4E04323F0700343F4004343F00E
:102D0C00C00320F822300A7830F822309BB223F42A
:102D1C00E04323F0700343F4404343F0800320F876
:102D2C0022300B7830F8232092B222F4E04222F0C9
:102D3C00400248F2800C42EA0C0220F823200A7868
:102D4C0030F822309BB223F4804323F0700343EA23
:102D5C000C0320F822303AE74B788BB10A7830F824
:102D6C0022309BB223F4E04323F0400383F01003A2
:102D7C0043F4004343F0800320F8223000207047D6
:102D8C000A7830F822309BB223F4804323F070038E
:102D9C0083F4805343F4004343F0800320F8223043
:102DAC00ECE70B7B002B4BD14B7833B30A7830F824
:102DBC00223013F0400F0CD030F822309BB223F4A9
:102DCC00E04323F0700343F4004343F0C00320F8C6
:102DDC002230CB78012B33D00A7830F822309BB2DA
:102DEC0023F4E04323F0400383F0200343F4004337
:102DFC0043F0800320F8223022E00A7830F82230A9
:102E0C0013F4804F0CD030F822309BB223F4E04303
:102E1C0023F0700343F4404343F0800320F8223046
:102E2C000A7830F822309BB223F4804323F07003ED
:102E3C0083F4405343F4004343F0800320F82230E2
:102E4C000020704711B98023A0F84C300020704747
:102E5C000020704700207047B0F8440080B27047E3
:102E6C000020704710B45C1C640800EB420202F5B1
:102E7C00806207E00B78487843EA002322F8043B91
:102E8C000231013C002CF5D110BC704770B50546E1
:102E9C000C464B78012B37D00A7B002A40F0268356
:102EAC008B690A69934240F204839B1A8B61B5F8D3
:102EBC0050309BB22B44217803EB0113002A40F0D5
:102ECC00FC82B3F80C2492B222F4F84292B2A3F82A
:102EDC000C24B3F80C246FEA42426FEA524292B2CD
:102EEC00A3F80C24227835F822309BB223F48043CB
:102EFC0023F0700383F4405343F4004343F0800306
:102F0C0025F82230002070BD8E690A69964200D9DE
:102F1C001646237B002B39D0E378022B58D022782D
:102F2C0035F822309BB223F4E04323F0700343F4D2
:102F3C00014343F0800325F82230236A9B1B236254
:102F4C00237835F8232012F0400F00F026826278A7
:102F5C00002A40F0CA81B5F8502092B22A4402EB04
:102F6C000313002E40F0A881B3F80C2492B222F483
:102F7C00F84292B2A3F80C24B3F80C246FEA424244
:102F8C006FEA524292B2A3F80C24B0E1B6B23346C7
:102F9C00E28861692846FFF765FFB5F850309BB2AF
:102FAC002B44227803EB0213A3F80464227835F83F
:102FBC0022309BB223F4E04323F0400383F0300330
:102FCC0043F4004343F0800325F8223000209AE7B5
:102FDC00236A9A4280F05281227835F822309BB2D3
:102FEC0023F4E04323F0700343F4014343F08003E4
:102FFC0025F82230236A9B1B2362237835F8232083
:10300C0012F0400F00F09D8062788ABBB5F850201A
:10301C0092B22A4402EB03138EB9B3F80C2492B289
:10302C0022F4F84292B2A3F80C24B3F80C246FEA01
:10303C0042426FEA524292B2A3F80C241AE03E2E9E
:10304C0009D8720816F0010F00D00132920292B228
:10305C00A3F80C240EE0720916F01F0F00D1013AF0
:10306C006FEAC2626FEA524292B2A3F80C2401E0FA
:10307C00012A2BD0B3B2628961692846FFF7F2FEB0
:10308C00636933446361236A2269934228D99B1B89
:10309C0023626378002B40D1B5F850309BB22B449F
:1030AC00227803EB0213FEB9B3F8042492B222F493
:1030BC00F84292B2A3F80424B3F804246FEA424213
:1030CC006FEA524292B2A3F8042428E0B5F85020DB
:1030DC0092B22A4402EB0313B2B2A3F80C24C9E750
:1030EC00002222621E46D4E73E2E09D8720816F042
:1030FC00010F00D00132920292B2A3F804240EE028
:10310C00720916F01F0F00D1013A6FEAC2626FEA22
:10311C00524292B2A3F8042401E0012B06D0B3B2C0
:10312C00228961692846FFF79DFE3FE7B5F85030CC
:10313C009BB22B44227803EB0213B2B2A3F8042403
:10314C00EDE762788ABBB5F8502092B22A4402EBC4
:10315C0003138EB9B3F8042492B222F4F84292B25B
:10316C00A3F80424B3F804246FEA42426FEA5242F3
:10317C0092B2A3F804241AE03E2E09D8720816F075
:10318C00010F00D00132920292B2A3F804240EE097
:10319C00720916F01F0F00D1013A6FEAC2626FEA92
:1031AC00524292B2A3F8042401E0012A2BD0B3B20C
:1031BC00228961692846FFF755FE636933446361D0
:1031CC00236A2269934228D99B1B23626378002BC4
:1031DC0040D1B5F850309BB22B44227803EB02134C
:1031EC00FEB9B3F80C2492B222F4F84292B2A3F8CE
:1031FC000C24B3F80C246FEA42426FEA524292B2AA
:10320C00A3F80C2428E0B5F8502092B22A4402EB23
:10321C000313B2B2A3F80424C9E7002222621E46AB
:10322C00D4E73E2E09D8720816F0010F00D00132F7
:10323C00920292B2A3F80C240EE0720916F01F0F42
:10324C0000D1013A6FEAC2626FEA524292B2A3F81D
:10325C000C2401E0012B06D0B3B2628961692846C7
:10326C00FFF700FEA2E6B5F850309BB22B44227853
:10327C0003EB0213B2B2A3F80C24EDE7217835F876
:10328C00212092B222F4E24222F0700242F4004277
:10329C0042F0800225F82120B5F8502092B22A4441
:1032AC00217802EB01129BB2A2F8043422896169E5
:1032BC002846FFF7D7FD79E63E2E09D8720816F09E
:1032CC00010F00D00132920292B2A3F80C240EE04E
:1032DC00720916F01F0F00D1013A6FEAC2626FEA51
:1032EC00524292B2A3F80C2401E0012A26D0B3B2C8
:1032FC00628961692846FFF7B5FD636933446361F0
:10330C00236A2269934223D99B1B2362002E3FF42C
:10331C004DAE63786BBBB5F850309BB22B44227822
:10332C0003EB02133E2E17D8720816F0010F00D0D3
:10333C000132920292B2A3F804241CE0B5F850209A
:10334C0092B22A4402EB0313B2B2A3F80C24CEE7D8
:10335C00002222621E46D9E7720916F01F0F00D117
:10336C00013A6FEAC2626FEA524292B2A3F80424A5
:10337C0001E0012B06D0B3B2228961692846FFF720
:10338C0071FD13E6B5F850309BB22B44227803EB59
:10339C000213B2B2A3F80424EDE762788ABBB5F845
:1033AC00502092B22A4402EB03138EB9B3F80424D2
:1033BC0092B222F4F84292B2A3F80424B3F8042493
:1033CC006FEA42426FEA524292B2A3F804241AE026
:1033DC003E2E09D8720816F0010F00D0013292026D
:1033EC0092B2A3F804240EE0720916F01F0F00D15C
:1033FC00013A6FEAC2626FEA524292B2A3F8042415
:10340C0001E0012A26D0B3B2228961692846FFF770
:10341C0029FD636933446361236A2269934223D98A
:10342C009B1B2362002E3FF4C1AD63786BBBB5F8D8
:10343C0050309BB22B44227803EB02133E2E17D84C
:10344C00720816F0010F00D00132920292B2A3F86A
:10345C000C241CE0B5F8502092B22A4402EB031362
:10346C00B2B2A3F80424CEE7002222621E46D9E7AA
:10347C00720916F01F0F00D1013A6FEAC2626FEAAF
:10348C00524292B2A3F80C2401E0012B06D0B3B245
:10349C00628961692846FFF7E5FC87E5B5F850308D
:1034AC009BB22B44227803EB0213B2B2A3F80C2488
:1034BC00EDE700228A611A46F9E43E2A09D8510840
:1034CC0012F0010F00D00131890289B2A3F80C145B
:1034DC0008E5510912F01F0F00D101396FEAC161E3
:1034EC006FEA514189B2A3F80C14FBE4CA78022AA2
:1034FC0045D0012A40F0208189692269914240F22D
:10350C00D480891AA161D3B9B5F850309BB22B4441
:10351C00217803EB0113002A40F0CB80B3F804149C
:10352C0089B221F4F84189B2A3F80414B3F8041455
:10353C006FEA41416FEA514189B2A3F804146378F0
:10354C00002B40F0EA80B5F850309BB22B44217828
:10355C0003EB0113002A40F0C580B3F80C2492B29F
:10356C0022F4F84292B2A3F80C24B3F80C246FEABC
:10357C0042426FEA524292B2A3F80C24B2E4CBB9A5
:10358C00B0F850309BB203440A7803EB02130A697B
:10359C0072BBB3F8042492B222F4F84292B2A3F8AC
:1035AC000424B3F804246FEA42426FEA524292B206
:1035BC00A3F804246378002B4CD1B5F850309BB29F
:1035CC002B44227803EB0213226952BBB3F80C2470
:1035DC0092B222F4F84292B2A3F80C24B3F80C2461
:1035EC006FEA42426FEA524292B2A3F80C2433E0E3
:1035FC003E2A09D8510812F0010F00D001318A027D
:10360C0092B2A3F80424D5E7510912F01F0F00D190
:10361C0001396FEAC1626FEA524292B2A3F80424F4
:10362C00C8E73E2A09D8510812F0010F00D0013129
:10363C008A0292B2A3F80C240EE0510912F01F0F6B
:10364C0000D101396FEAC1626FEA524292B2A3F81B
:10365C000C2401E0012B1DD0E369002B3FF442AC9C
:10366C00227835F8221044F2400303EA01008B4320
:10367C0002D000287FF436AC35F822309BB223F40C
:10368C00E04323F0700343F4004343F0C00325F8F8
:10369C00223027E4B5F850309BB22B44227803EB50
:1036AC000213228AA3F80C24D6E70022A2610A4650
:1036BC0029E73E2A09D8510812F0010F00D0013138
:1036CC00890289B2A3F8041439E7510912F01F0FCB
:1036DC0000D101396FEAC1616FEA514189B2A3F897
:1036EC0004142CE73E2A0AD8510812F0010F00D01E
:1036FC0001318A0292B2A3F80C24FFF7F3BB5109F3
:10370C0012F01F0F00D101396FEAC1626FEA524209
:10371C0092B2A3F80C24FFF7E5BB012B7FF4E2ABCC
:10372C00B5F850309BB22B44217803EB011392B2C5
:10373C00A3F80C24FFF7D6BB0120FFF7E4BB10B4B1
:10374C005C0800EB420000F5806007E030F8042BC9
:10375C000A70C2F307224A700231013C002CF5D1E9
:10376C0013F0010F01D003880B7010BC704710B51B
:10377C00D0F8B842D0F8BC325BB194F80002FF2804
:10378C0007D09B6894F8012221469847FF2384F8C0
:10379C000032002010BD0000432303800048704716
:1037AC004400002043230380004870478800002019
:1037BC004323038000487047D80000200A2303806D
:1037CC0000487047CC00002038B50446D0F8B852F9
:1037DC0001F018F8C5F80C02D4F8B8324BB1D4F893
:1037EC00BC32DB6805F50371D5F80402984700205C
:1037FC0038BD0220FCE710B5D0F8B822D0F8C04292
:10380C00F2B101EB810300EB8303DB694BB101EBFC
:10381C00810C04EBCC04A46BB3FBF4FC04FB1C3355
:10382C0023B10023C2F81432002010BD01EB810338
:10383C0000EB83030022DA61134600F0D3FFF3E7B9
:10384C000220F2E7F0B583B006460C46D0F8B87209
:10385C0000238DF80730ADF804300B7813F06005B9
:10386C0027D0202D53D1CA88DAB113F0800F0CD099
:10387C00D0F8BC329B68394660789847E288394664
:10388C00304600F07FFD002544E04B7887F800328D
:10389C008B7987F80132CA88394600F088FD0025FB
:1038AC0038E0D0F8BC329B68002248789847002555
:1038BC0030E04F780A2F14D00B2F20D01FB100F01E
:1038CC0055FA022526E090F89C32032B03D000F029
:1038DC004DFA02251EE0022201A900F053FD3D46DF
:1038EC0018E090F89C32032B03D000F03FFA02252D
:1038FC0010E001220DF1070100F044FD0AE090F800
:10390C009C32032B06D000F031FA022502E000F0C5
:10391C002DFA0225284603B0F0BD38B504468121A6
:10392C0000F029FF0025E5620121204600F023FF6D
:10393C00C4F86C518221204600F01DFF2564D4F898
:10394C00B8324BB1D4F8BC325B689847D4F8B802A3
:10395C0000F062FFC4F8B852002038BD70B50446C0
:10396C00037CABBB4FF400730222812100F0F8FE04
:10397C000125E5624FF4007302222946204600F02F
:10398C00EFFEC4F86C51082303228221204600F07C
:10399C00E7FE012323644FF4077000F039FF05465E
:1039AC00C4F8B80268B3D4F8BC321B68984700233B
:1039BC00C5F81432C5F81832267CCEB94FF4007312
:1039CC00D5F804220121204600F014FF304670BDCA
:1039DC0040230222812100F0C3FE0125E562402331
:1039EC0002222946204600F0BBFEC4F86C51CAE7FF
:1039FC004023D5F804220121204600F0FBFE0026CE
:103A0C00E4E70126E2E719B1C0F8BC1200207047C8
:103A1C0002207047D0F8B832C3F80812C3F810224D
:103A2C0000207047D0F8B832C3F804120020704759
:103A3C00D0F8B82292B108B5037C43B94FF40073A7
:103A4C00D2F80422012100F0D5FE002008BD40234D
:103A5C00D2F80422012100F0CDFEF6E702207047D7
:103A6C0098B108B50346D0F8B40210B10020C3F8E1
:103A7C00B40209B1C3F8B012012183F89C121A7078
:103A8C00184600F023FE002008BD0220704719B133
:103A9C00C0F8B412002070470220704708B500F03F
:103AAC0057FE002008BD08B5D0F8B4322BB11B6806
:103ABC00984700B908BD0220FCE70220FAE708B5D8
:103ACC00D0F8B4325B689847002008BD38B504467E
:103ADC0000F52A75284600F035F90123C4F8943214
:103AEC00B4F8AE32C4F8983294F8A81201F01F035F
:103AFC00012B0ED0022B11D02BB101F080012046EE
:103B0C0000F041FE03E02946204600F0C9FA0020EF
:103B1C0038BD2946204600F0F7FAF8E7294620463A
:103B2C0000F022FBF3E738B504460D4691BB134673
:103B3C00D0F89422032A03D0052A24D0084633E077
:103B4C00D0F86011D0F8642191420DD9891AC0F8CF
:103B5C0060118A4206D98AB21946204600F036FC1A
:103B6C00284621E092B2F7E7D0F8B4321B691BB1BA
:103B7C0090F89C22032A04D0204600F02FFC284603
:103B8C0012E09847F8E70021C0F8941200F0FBFD12
:103B9C00284609E0D0F8B4329B6933B190F89C22E6
:103BAC00032A04D19847002038BD0220FCE70220EC
:103BBC00FAE738B504460D46002953D11346D0F820
:103BCC009422022A0CD0042A00D01AB98021204653
:103BDC0000F0D9FD94F8A032012B3ED0284638BD18
:103BEC00016A426A91421BD8C169B1FBF2F302FB34
:103BFC0013132BB98A4203D8D0F8983299421CD3AC
:103C0C00D4F8B432DB681BB194F89C22032A21D07F
:103C1C008021204600F0B7FD204600F0EAFBD9E7F2
:103C2C008A1A026292B2194600F0B9FB00231A46B6
:103C3C001946204600F0DEFDCCE70022114600F0CC
:103C4C00AEFB0021C4F898120B460A46204600F041
:103C5C00D1FDBFE720469847DAE7002384F8A0326D
:103C6C002846BCE7D0F8B4325B6933B190F89C229B
:103C7C00032A04D198470020B1E70220AFE70220C5
:103C8C00ADE770B5044640230022114600F068FDF4
:103C9C000125C4F858514026C4F86461334600220B
:103CAC008021204600F05CFDA561666284F89C5280
:103CBC000023C4F894326360C4F8A432D4F8B83248
:103CCC002BB1D4F8B4325B68002120469847002011
:103CDC0070BD01740020704790F89C3280F89D32C2
:103CEC00042380F89C320020704790F89C32042BFF
:103CFC0001D00020704790F89D3280F89C32F8E794
:103D0C0008B590F89C32032B01D0002008BDD0F8E8
:103D1C00B432DB69002BF8D09847F6E70346002055
:103D2C0002E00130C0B201331A78002AF9D1704791
:103D3C0008B54B88012B00D008BDC0F8A43200F0A8
:103D4C004DFBF9E70B7803704B7843708B78CA788E
:103D5C0003EB022343800B794A7903EB0223838024
:103D6C008B79CA7903EB0223C380704710B50446E4
:103D7C00802100F008FD0021204600F004FD10BD5C
:103D8C0030B583B005460C460023ADF806304A88A2
:103D9C00130A013B062B00F2A480DFE803F00418A1
:103DAC002CA2A2869300D0F8B0321B680DF106014C
:103DBC00007C9847BDF806201AB1E388002B40F030
:103DCC009480E388002B00F09A8003B030BD037C14
:103DDC0043B9D0F8B4329B6A0DF106009847022320
:103DEC004370E7E7D0F8B432DB6A0DF10600984770
:103DFC0002234370DEE7D2B2052A52D8DFE802F084
:103E0C0003101D2A3744D0F8B0325B6823B10DF192
:103E1C000601007C9847CDE72146FFF7A7FFD4E7C2
:103E2C00D0F8B0329B6823B10DF10601007C9847A5
:103E3C00C0E72146FFF79AFFC7E7D0F8B032DB683E
:103E4C0023B10DF10601007C9847B3E72146FFF73B
:103E5C008DFFBAE7D0F8B0321B6923B10DF1060122
:103E6C00007C9847A6E72146FFF780FFADE7D0F826
:103E7C00B0325B6923B10DF10601007C984799E7DC
:103E8C002146FFF773FFA0E7D0F8B0329B6923B14E
:103E9C000DF10601007C98478CE72146FFF766FF81
:103EAC0093E72146FFF762FF8FE7037C33B9D0F825
:103EBC00B4325B6B0DF1060098477BE72146FFF7A8
:103ECC0055FF82E7037C43B9D0F8B4321B6B0DF17C
:103EDC0006009847072343706CE72146FFF746FF1F
:103EEC0073E72146FFF742FF6FE79A4228BF1A4655
:103EFC00ADF806200146284600F044FA61E7284652
:103F0C0000F06CFA61E738B504468B88F3B9CB88BE
:103F1C00E3B94B887F2B19D803F07F0590F89C32BE
:103F2C00032B0CD080F89E52294600F053FC2046FF
:103F3C0000F054FA35B1022384F89C3209E0FFF703
:103F4C0015FF06E0012384F89C3202E02046FFF7BF
:103F5C000DFF38BD38B504460D468978284B1970CD
:103F6C0001290ED890F89C32022B0ED0032B21D0B5
:103F7C002946FFF7FBFE224B19782046FFF79FFDE1
:103F8C0002E02946FFF7F2FE38BD81B14160032300
:103F9C0080F89C32FFF787FD022803D0204600F002
:103FAC001DFAF1E729462046FFF7E0FEECE700F0AA
:103FBC0015FAE9E789B1436899421DD0D9B2FFF7E8
:103FCC007EFD0F4B197861602046FFF76CFD0228CF
:103FDC000DD0204600F002FAD6E7022380F89C327E
:103FEC004160FFF76CFD204600F0F8F9CCE729465C
:103FFC002046FFF7BBFEC7E700F0F0F9C4E700BFAF
:10400C00200A002008B5CB88012B0AD190F89C32ED
:10401C00022B09D9032B09D10122011D00F0B2F9A1
:10402C0001E0FFF7A3FE08BD5BB213B9FFF79EFEDC
:10403C00F9E70146002341F8083F012200F0A2F9FC
:10404C00F1E708B590F89C32013B022B12D8CB88D3
:10405C00022B0CD10123C360D0F8A4320BB1032383
:10406C00C360022200F10C0100F08CF908BDFFF7CF
:10407C007DFEFBE7FFF77AFEF8E708B590F89C3277
:10408C00013B022B09D84B88012B00D008BD002323
:10409C00C0F8A43200F0A2F9F8E7FFF767FEF5E7E5
:1040AC0008B50B7803F06003202B05D0402B03D010
:1040BC0043B1FFF75BFE03E0D0F8B4329B6898473E
:1040CC00002008BD4B78092B1BD8DFE803F0111733
:1040DC001A141A08051A0E0BFFF752FEF0E7FFF739
:1040EC0012FFEDE7FFF736FFEAE7FFF78BFFE7E795
:1040FC00FFF7A7FFE4E7FFF71BFEE1E7FFF7BDFFC4
:10410C00DEE7FFF733FEDBE738B505460C460B78E8
:10411C0003F06003202B06D0402B04D01BB1FFF71B
:10412C0025FE002038BD95F89C32013B022B16D899
:10413C002379012B0ED8D5F8B4329B68214628463A
:10414C009847E388002BECD10028EAD1284600F0F0
:10415C0045F9E6E721462846FFF708FEE1E7214648
:10416C002846FFF703FEDCE770B505468B880C7814
:10417C0004F06004202C07D0DAB2402C04D05CB1DF
:10418C00FFF7F4FD002405E0D5F8B4329B6828460F
:10419C0098470024204670BD202C09D04E78012E63
:1041AC0033D0032E0AD0002E55D0FFF7DFFDF1E7F8
:1041BC00D0F8B4329B6898470446EBE790F89C32F1
:1041CC00022B04D0032B11D0FFF7D0FDE2E70AB18C
:1041DC00802A03D12846FFF7C9FDDBE7114600F022
:1041EC00D2FA8021284600F0CEFAD3E74B8823B9C7
:1041FC001AB1802A01D0CB881BB1284600F0EEF80A
:10420C00C8E7114600F0BFFAF7E790F89C32022B92
:10421C0004D0032B11D0FFF7A9FDBBE70AB1802A0C
:10422C0003D12846FFF7A2FDB4E7114600F0ABFA24
:10423C008021284600F0A7FAACE74B88002BA9D1C7
:10424C0012F07F0F03D1284600F0C8F8A2E7114600
:10425C0000F0A1FAF7E790F89C02022806D0032898
:10426C0029D02846FFF782FD344693E70AB1802A0D
:10427C0013D113F0800F15D102F07F0202EB8202F2
:10428C00910001F5A8712944043100230B6002222E
:10429C00284600F077F834467CE72846FFF766FDA1
:1042AC00344677E702F07F0202EB82029100103174
:1042BC0029440431E9E75BB2002B1FDB02F00F004D
:1042CC0000EB800005EB8000D0F8580120B3002BE8
:1042DC0027DB02F07F0303EB83039C0004F5A87437
:1042EC002C4404340AB1802A24D1002323600222F6
:1042FC002146284600F046F834464BE702F00F0002
:10430C0000EB800005EB800080690028DFD1284697
:10431C00FFF72CFD34463DE72846FFF727FD3446D2
:10432C0038E702F07F0303EB83039C0010342C442A
:10433C000434D7E71146284600F035FA10B10123B2
:10434C002360D4E700232360D1E7D0B170B50D46CC
:10435C0016460446FFF7E2FC431C5B009BB233801D
:10436C002B7003236B70022307E001345A1CD2B26A
:10437C00E8540233DBB20021A95420780028F4D190
:10438C0070BD704708B513460222C0F89422C36171
:10439C0003620A46002100F025FA002008BD08B58A
:1043AC0013460A46002100F01DFA002008BD08B58E
:1043BC0013460322C0F89422C0F85C31C0F8603177
:1043CC000A46002100F016FA002008BD08B5134675
:1043DC000A46002100F00EFA002008BD08B504239F
:1043EC00C0F8943200231A46194600F0FBF900205D
:1043FC0008BD08B50523C0F8943200231A461946A7
:10440C0000F0F8F9002008BD08B500220F4910484B
:10441C00FFF726FB70B90F490D48FFF738FB60B961
:10442C000D490B48FFF7EFFA50B90948FFF736FB77
:10443C0048B908BDFBF72CFFEDE7FBF729FFEFE7C9
:10444C00FBF726FFF1E7FBF723FFF2E72C01002037
:10445C00240A00200C0000201C01002000207047C2
:10446C000020704710B50146044C2046FFF7DAFADD
:10447C002046FFF7DDFA002010BD00BF240A002003
:10448C0010B5064C002206492046FFF7C3FA054931
:10449C002046FFF7C7FA002010BD00BF240A0020F9
:1044AC00E8100020E80C002012230B800048704715
:1044BC004801002004230B80004870475C01002059
:1044CC00002393421ED200B510E00CF1370C01F81A
:1044DC0013C000014FEA430C0CF1010C4FF0000E1D
:1044EC0001F80CE00133DBB2934209D24FEA107CA5
:1044FC00B0F1204FE9D20CF1300C01F813C0E8E711
:10450C005DF804FB7047000038B50B4BD3F8E80797
:10451C00D3F8EC47D3F8F037C01800D138BD074DAD
:10452C000822A91CFFF7CCFF042205F1120120463A
:10453C00FFF7C6FFF2E700BF00F0FF1F600100208D
:10454C0008B51A230B80FFF7DFFF014808BD00BF39
:10455C006001002008B50A4628B905490548FFF74F
:10456C00F4FE034808BD02490248FFF7EEFEF8E7E7
:10457C00E81400200862000810B50A46034C2146D6
:10458C000348FFF7E2FE204610BD00BFE8140020F0
:10459C002062000808B50A4628B905490548FFF706
:1045AC00D4FE034808BD02490248FFF7CEFEF8E7E7
:1045BC00E81400203462000808B50A4628B90549F9
:1045CC000548FFF7C2FE034808BD02490248FFF741
:1045DC00BCFEF8E7E814002040620008022805D869
:1045EC00DFE800F00504020001207047022070474C
:1045FC0002680E4B9A4200D0704700B583B003F5A9
:10460C00DA33DA6942F40002DA61DB6903F400039D
:10461C000193019B002211461420FCF7EDF81420A5
:10462C00FCF722F903B05DF804FB00BF005C00400E
:10463C0008B500F52C71D0F8E802FFF747FA08BD71
:10464C0008B501EB810300EBC303D3F87C21D0F850
:10465C00E802FFF768FA08BD08B501EB810300EB2F
:10466C00C303DA6BD0F8E802FFF7A3FA08BD08B56C
:10467C00D0F8E802FFF744FB08BD10B50446836888
:10468C00022B09D10121D4F8E802FFF722FBD4F860
:10469C00E802FFF7F6FA10BDFBF7FAFDF2E70000AF
:1046AC0010B50446D0F8E802FFF716FBA36923B156
:1046BC00024A136943F00603136110BD00ED00E0DC
:1046CC0008B5D0F8E802FFF710FB08BD10B504469A
:1046DC001D48C0F8E842C4F8C0021C4B0360082314
:1046EC0043600223836000238361C3610362FCF790
:1046FC0087FD30BB182300221146D4F8C002FDF709
:10470C008CFC582300228021D4F8C002FDF785FCD4
:10471C00C02300228121D4F8C002FDF77EFC4FF4A7
:10472C00887300220121D4F8C002FDF776FC4FF407
:10473C00807300228221D4F8C002FDF76EFC0020A9
:10474C0010BDFBF7A5FDD5E7E8160020005C004086
:10475C0008B5D0F8C002FCF7DFFDFFF73FFF08BD3E
:10476C0008B594461A466346D0F8C002FDF717FB0D
:10477C00FFF734FF08BD08B5D0F8C002FDF751FBB8
:10478C00FFF72CFF08BD08B5D0F8C002FDF7CEFB33
:10479C00FFF724FF08BD08B5D0F8C002FDF702FCF6
:1047AC00FFF71CFF08BDD0F8C03211F0800F08D104
:1047BC0001F07F0101EB810103EBC10191F86A016A
:1047CC00704701F07F01013101EB810103EBC10165
:1047DC008878704708B5D0F8C002FDF7E2F9FFF70A
:1047EC00FDFE08BD08B5D0F8C002FDF777FBFFF75A
:1047FC00F5FE08BD08B5D0F8C002FDF744FBFFF785
:10480C00EDFE08BD08B5D0F8C002FDF75EFB08BD93
:10481C0000487047D41900207047704770B50D4E92
:10482C000D4D761BB61006D0002455F8043B013410
:10483C009847A642F9D1094E094D00F0D5F8761BE0
:10484C00B61006D0002455F8043B01349847A64214
:10485C00F9D170BD54620008546200085C62000813
:10486C0054620008830730B548D0541E002A3FD04C
:10487C000346CAB201E0013C3AD303F8012B9D0771
:10488C00F9D1032C2DD9CDB245EA05250F2C45EADB
:10489C00054536D9A4F1100222F00F0C03F1200EBD
:1048AC00E6444FEA121C03F1100242E9045542E9B6
:1048BC00025510327245F8D10CF1010214F00C0FB4
:1048CC0003EB021204F00F0C13D0ACF1040323F031
:1048DC0003030433134442F8045B9342FBD10CF002
:1048EC0003042CB1CAB21C4403F8012B9C42FBD12B
:1048FC0030BD64461346002CF4D1F9E70346144648
:10490C00BFE71A46A446E0E7024B13B1024800F099
:10491C0005B8704700000000354900080023014627
:10492C001A46184600F01AB838B5084B084D5B1BF0
:10493C009C1007D0043B1D44013C55F804399847A2
:10494C00002CF9D1BDE8384000F054B86062000882
:10495C005C620008704700BF704700BF2DE9F0474C
:10496C00DFF87CA00646DAF8000098460F46914620
:10497C00FFF7F0FF1B4B1B68D3F8484124B3656865
:10498C001F2D26DC5EB96B1C0235DAF80000636063
:10499C0044F82570FFF7E0FF0020BDE8F087012305
:1049AC0004EB8501C1F88890D4F88821AB401A43F8
:1049BC00022EC4F88821C1F80881E4D1D4F88C21E6
:1049CC001343C4F88C31DEE703F5A674C3F84841F1
:1049DC00D5E7DAF80000FFF7BFFF4FF0FF30DCE758
:1049EC00A805002050620008F8B500BFF8BC08BC50
:1049FC009E467047F8B500BFF8BC08BC9E46704791
:104A0C0048656C6C6F20576F726C642E0000000050
:104A1C000000000000000000010203040607080962
:104A2C000000000001020304000000000000000070
:104A3C00000000000000FC0000000000020000006C
:104A4C00000C020C020000000000000090D0BCD052
:104A5C00BC900003000300001824FE448C000302E9
:104A6C00070201001824D8B04C8000030001020199
:104A7C00C038E438E000010202010202080600001E
:104A8C000000000000000000000000F8040200001C
:104A9C0000010204000204F80000000402010000FE
:104AAC009060F86090000000010000002020FC20C5
:104ABC0020000000010000000000000000000806BB
:104ACC00000000002020202020000000000000003A
:104ADC000000000000000002000000000080601CCC
:104AEC000200040300000000F8040404F8000102B2
:104AFC00020201000008FC0000000002030200009A
:104B0C00188444241800030202020200080424241E
:104B1C00D80001020202010040B088FC80000000B5
:104B2C00000302003C242424C40001020202010000
:104B3C00F824242CC0000102020201000C04E41C25
:104B4C000400000003000000D8242424D800010233
:104B5C000202010038444444F80000030202010040
:104B6C000000100000000000020000000000200007
:104B7C000000000006000000002050880402000025
:104B8C000000010290909090900000000000000046
:104B9C000002048850200002010000001804C42404
:104BAC001800000002000000F804E494F800010270
:104BBC000202020000E09CF08000020300000302ED
:104BCC0004FC2424D800020302020100F8040404AB
:104BDC000C0001020202010004FC0404F8000203B0
:104BEC000202010004FC24740C0002030202030004
:104BFC0004FC24740C00020302000000F0080444BE
:104C0C00CC4000010202010004FC2020FC04020341
:104C1C00000003020404FC0404000202030202006C
:104C2C00000404FC040406040403000004FC24D067
:104C3C000C0402030200030204FC04000000020343
:104C4C0002020203FC3CC03CFC0003000300030016
:104C5C0004FC30C4FC04020302000300F804040446
:104C6C00F80001020202010004FC242418000203D3
:104C7C0002000000F8848404F80001020207050019
:104C8C0004FC246498000203020003021824244448
:104C9C008C000302020201000C04FC040C00000254
:104CAC000302000004FC0000FC04000102020100ED
:104CBC00047C80E01C040000030000001CE03CE0CD
:104CCC001C00000300030000049C609C0400020311
:104CDC0000030200041CE01C04000002030200009C
:104CEC000C84641C04000203020203000000FE0298
:104CFC000200000007040400000E30C00000000099
:104D0C0000010200000202FE000000040407000083
:104D1C00000402040000000000000000000000007D
:104D2C000000080808080808000002000000000045
:104D3C00000000000040A0A0C0000001020203021D
:104D4C0004FC2020C00000030202010000C020204F
:104D5C00600000010202020000C02024FC000001DF
:104D6C000202030200C0A0A0C00000010202020067
:104D7C000020F82424040002030202000040A0A03A
:104D8C00602000070A0A0A0404FC2020C000020369
:104D9C00020003020020E4000000000203020000F5
:104DAC00000020E4000008080807000004FC80E074
:104DBC0020200203020003020404FC000000020293
:104DCC0003020200E020E020C00003000300030007
:104DDC0020E02020C00002030200030200C02020BB
:104DEC00C00000010202010020E02020C000080FDA
:104DFC000A02010000C02020E0000001020A0F0896
:104E0C0020E0402020000203020000000060A0A06F
:104E1C0020000002020203000020F8200000000025
:104E2C000102020020E00020E00000010202030267
:104E3C0020E0208060200000030100006080E08002
:104E4C00600000030003000020608060200002036B
:104E5C000003020020E02080602008080701000009
:104E6C000020A0602000000203020200000020DEEF
:104E7C000200000000070400000000FF000000001A
:104E8C00000F00000002DE200000000407000000FC
:104E9C0002010204040200000000000000000000F7
:104EAC00000000000000000000000000000000F8FE
:104EBC0000000000000000333000000000100C0661
:104ECC00100C0600000000000000000040C07840FC
:104EDC00C0784000043F04043F040400007088FCC8
:104EEC0008300000001820FF211E0000F008F00020
:104EFC00E018000000211C031E211E0000F0088891
:104F0C00700000001E2123241927211010160E00FA
:104F1C00000000000000000000000000000000E0A5
:104F2C0018040200000000071820400000020418BA
:104F3C00E00000000040201807000000404080F016
:104F4C00804040000202010F01020200000000F04C
:104F5C00000000000101011F010101000000000020
:104F6C000000000080B07000000000000000000095
:104F7C00000000000001010101010101000000001E
:104F8C0000000000003030000000000000000000B5
:104F9C0080601804006018060100000000E0100892
:104FAC000810E000000F102020100F00001010F867
:104FBC00000000000020203F2020000000700808A6
:104FCC000888700000302824222130000030088826
:104FDC00884830000018202020110E000000C0204E
:104FEC0010F8000000070424243F240000F808886F
:104FFC00880808000019212020110E0000E01088FC
:10500C0088180000000F112020110E00003808082D
:10501C00C83808000000003F00000000007088083D
:10502C0008887000001C222121221C0000E01008BE
:10503C000810E0000000312222110F00000000C017
:10504C00C0000000000000303000000000000080B4
:10505C0000000000000080600000000000008040A4
:10506C0020100800000102040810200040404040BD
:10507C004040400004040404040404000008102010
:10508C004080000000201008040201000070480855
:10509C000808F0000000003036010000C030C828BD
:1050AC00E810E0000718272423140B000000C03878
:1050BC00E0000000203C23020227382008F88888F2
:1050CC0088700000203F202020110E00C0300808FE
:1050DC0008083800071820202010080008F80808D5
:1050EC000810E000203F202020100F0008F88888CE
:1050FC00E8081000203F20202320180008F888889A
:10510C00E8081000203F200003000000C030080811
:10511C000838000007182020221E020008F808009A
:10512C000008F808203F210101213F20000808F861
:10513C00080800000020203F202000000000080884
:10514C00F8080800C08080807F00000008F888C044
:10515C0028180800203F20012638200008F80800F5
:10516C0000000000203F20202020300008F8F8002C
:10517C00F8F80800203F003F003F200008F830C03E
:10518C000008F808203F200007183F00E01008082E
:10519C000810E0000F10202020100F0008F808085D
:1051AC000808F000203F210101010000E010080870
:1051BC000810E0000F18242438504F0008F8888895
:1051CC0088887000203F2000030C30200070880875
:1051DC00080838000038202121221C00180808F883
:1051EC00080818000000203F2000000008F8080004
:1051FC000008F808001F202020201F0008788800D5
:10520C0000C83808000007380E010000F80800F844
:10521C000008F800033C0700073C030008186880EE
:10522C008068180820302C03032C30200838C80064
:10523C00C83808000000203F2000000010080808B3
:10524C00C83808002038262120201800000000FE55
:10525C00020202000000007F40404000000C30C001
:10526C0000000000000000010638C000000202022D
:10527C00FE000000004040407F00000000000402DF
:10528C00020204000000000000000000000000000A
:10529C0000000000808080808080808000020204FA
:1052AC0000000000000000000000000000008080F2
:1052BC00808000000019242222223F2008F8008060
:1052CC0080000000003F112020110E000000008023
:1052DC0080800000000E11202020110000000080B2
:1052EC008088F800000E112020103F2000008080E4
:1052FC0080800000001F222222221300008080F0F8
:10530C00888888180020203F202000000000808022
:10531C0080808000006B94949493600008F8008067
:10532C0080800000203F210000203F2000809898C2
:10533C00000000000020203F202000000000008022
:10534C009898000000C08080807F000008F8000062
:10535C0080808000203F24022D302000000808F8B7
:10536C00000000000020203F202000008080808072
:10537C0080808000203F20003F20003F8080008004
:10538C0080800000203F210000203F200000808012
:10539C0080800000001F202020201F0080800080C3
:1053AC008000000080FFA12020110E000000008072
:1053BC0080808000000E112020A0FF808080800063
:1053CC008080800020203F21200001000000808090
:1053DC00808080000033242424241900008080E085
:1053EC00808000000000001F202000008080000052
:1053FC0000808000001F202020103F208080800033
:10540C000080808000010E30080601008080008042
:10541C00008080800F300C030C300F000080800067
:10542C00808080000020312E0E3120008080800092
:10543C000080808080818E70180601000080808042
:10544C00808080000021302C2221300000000000E0
:10545C00807C020200000000003F40400000000081
:10546C00FF00000000000000FF0000000002027CB2
:10547C00800000000040403F0000000000060101D9
:10548C000202040400000000000000000000000004
:10549C000000000000000000000000000000000000
:1054AC0000000000000000000000000000000000F0
:1054BC000000000000F0F0F0000000000000000010
:1054CC0000017F010000000000000000001C1C1CFB
:1054DC000000000000008060301C8C60301C0C0050
:1054EC0000000000000000000000000000000000B0
:1054FC000000000000000000000000E000000000C0
:10550C0000E000000086E69F86868686E69F860081
:10551C0000011F01010101011F010100000080C0F9
:10552C006020F820E0C00000000003070C18FF709A
:10553C00E18100000000070F10107F100F07000022
:10554C008060206080000000E02000000F302030E0
:10555C009F70DC371030C0000000100E03000718DD
:10556C00101807000000C02020E0C0000000000060
:10557C0080E01F38E88703C43C040000070F1810B4
:10558C00100B070D1010080000808C4C3800000028
:10559C0000000000000000000000000000000000FF
:1055AC0000000000000000000000000000000000EF
:1055BC00000080E0300804000000000000FEFF0145
:1055CC0000000000000000000000030F1820400045
:1055DC0000040830E0800000000000000000000023
:1055EC0001FFFE0000000000004020180F03000027
:1055FC0000000000000000000000C00000000000DF
:10560C00004266663C18FF183C66664200000000CB
:10561C0000000300000000000000000000008000FB
:10562C0000000000001010101010FF1010101010CF
:10563C00000000000000030000000000000000005B
:10564C00000000000000000000000000000000004E
:10565C000000000000808C4C3800000000000000AE
:10566C0000000000000000000000000000101010FE
:10567C0010101010101010000000000000000000AE
:10568C00000000000000000000000000000000000E
:10569C0000000000000000000000000000001C1CC6
:1056AC001C000000000000000000000000000000D2
:1056BC00E0380C000000000080701C0300000000AB
:1056CC000060380E0100000000000000000080C0E7
:1056DC0060202060C080000000FEFF010000000080
:1056EC0001FFFE000001070E181010180E07010034
:1056FC000000808080C0E00000000000000000007E
:10570C0000FFFF000000000000001010101F1F1011
:10571C00101000000080402020202060C08000007D
:10572C0000030300804020381F070000001C1A19DA
:10573C0018181818181F00000080C020202060C006
:10574C0080000000000303001010182FE7800000F9
:10575C0000070F10101010180F07000000000000B9
:10576C000000C0E0F000000000C0B088868180FF1F
:10577C00FF808000000000000010101F1F101000A0
:10578C000000E060606060606060000000003F103E
:10579C0008080818F0E0000000070B101010101C8F
:1057AC000F030000000080C040202020E0C000005B
:1057BC0000FCFF211008080818F0E0000001070C9D
:1057CC0018101010080F03000000C0E0606060604B
:1057DC0060E06000000003000000E018070000001B
:1057EC0000000000001F1F00000000000080C060CF
:1057FC002020202060C080000087EF2C181830304B
:10580C0068CF830000070F0810101010180F070046
:10581C000000C0C020202020C0800000001F3F607E
:10582C004040402010FFFE0000000C1C101010081F
:10583C000F0300000000000000000000000000004A
:10584C0000000000000E0E0E000000000000000022
:10585C00001C1C1C000000000000000000000000E8
:10586C000000000000000000000C0C000000000014
:10587C00000000000058380000000000000000008C
:10588C00000000804020100000001028448201001D
:10589C0000000000000000000000010204081000DD
:1058AC000000000000000000000000000084848460
:1058BC008484848484848400000000000000000040
:1058CC0000000000000010204080000000000000DC
:1058DC0000000000000001824428100000001008A5
:1058EC00040201000000000000C020201010101065
:1058FC0030E0C0000003030000F010080C070300A8
:10590C00000000001C1C1C0000000000000000C077
:10591C00406020202040C00000FCFF01F00E03C1BD
:10592C00FE03807F0001070E0811111011090402FB
:10593C000000000080E0E000000000000000807C1F
:10594C004340477FF880000010181F100000000033
:10595C00131F1C1020E0E02020202060C0800000DD
:10596C0000FFFF10101010182FE78000101F1F10E1
:10597C0010101010180F0700000080C040202020CD
:10598C002060E00000FCFF010000000000000100AE
:10599C000001070E181010100804030020E0E0208E
:1059AC0020202040C080000000FFFF00000000000D
:1059BC0001FFFE00101F1F10101018080E07010029
:1059CC0020E0E020202020202060800000FFFF103D
:1059DC001010107C00000000101F1F101010101071
:1059EC001018060020E0E0202020202060608000BD
:1059FC0000FFFF101010107C00000100101F1F1082
:105A0C000000000000000000000080C0602020208A
:105A1C0040E0000000FCFF0100004040C0C14040DD
:105A2C000001070E181010100F0F000020E0E020EE
:105A3C000000000020E0E02000FFFF10101010100C
:105A4C0010FFFF00101F1F1000000000101F1F1080
:105A5C000000202020E0E0202020000000000000BA
:105A6C0000FFFF000000000000001010101F1F10AE
:105A7C001010000000000000202020E0E02020207A
:105A8C0000000000000000FFFF0000000060E0804C
:105A9C008080C07F3F00000020E0E020000020A0BC
:105AAC006020200000FFFF30187CE3C000000000E5
:105ABC00101F1F10000001131F1C181020E0E02005
:105ACC00000000000000000000FFFF0000000000CC
